{
  "contractName": "CampaignFactory",
  "abi": [
    {
      "anonymous": false,
      "inputs": [
        {
          "indexed": false,
          "internalType": "string",
          "name": "description",
          "type": "string"
        }
      ],
      "name": "LogNewAlert",
      "type": "event"
    },
    {
      "inputs": [
        {
          "internalType": "uint256",
          "name": "",
          "type": "uint256"
        }
      ],
      "name": "deployedCampaign",
      "outputs": [
        {
          "internalType": "contract Campaign",
          "name": "",
          "type": "address"
        }
      ],
      "stateMutability": "view",
      "type": "function",
      "constant": true
    },
    {
      "inputs": [
        {
          "internalType": "uint256",
          "name": "minimum",
          "type": "uint256"
        }
      ],
      "name": "createCampaign",
      "outputs": [],
      "stateMutability": "nonpayable",
      "type": "function"
    },
    {
      "inputs": [],
      "name": "getDeployedCampaign",
      "outputs": [
        {
          "internalType": "contract Campaign[]",
          "name": "",
          "type": "address[]"
        }
      ],
      "stateMutability": "view",
      "type": "function",
      "constant": true
    }
  ],
  "bytecode": "0x608060405234801561001057600080fd5b5061172a806100206000396000f3fe608060405234801561001057600080fd5b50600436106100415760003560e01c80635eac000714610046578063a3303a7514610064578063b7ccb9ab14610080575b600080fd5b61004e6100b0565b60405161005b919061038e565b60405180910390f35b61007e600480360381019061007991906103eb565b61013e565b005b61009a600480360381019061009591906103eb565b610214565b6040516100a79190610427565b60405180910390f35b6060600080548060200260200160405190810160405280929190818152602001828054801561013457602002820191906000526020600020905b8160009054906101000a900473ffffffffffffffffffffffffffffffffffffffff1673ffffffffffffffffffffffffffffffffffffffff16815260200190600101908083116100ea575b5050505050905090565b6000813360405161014e90610253565b610159929190610472565b604051809103906000f080158015610175573d6000803e3d6000fd5b5090506000819080600181540180825580915050600190039060005260206000200160009091909190916101000a81548173ffffffffffffffffffffffffffffffffffffffff021916908373ffffffffffffffffffffffffffffffffffffffff1602179055507fca75c80642b93c980135b8355995abae3ab06033dc81f956b3824323b4903ef5604051610208906104f8565b60405180910390a15050565b6000818154811061022457600080fd5b906000526020600020016000915054906101000a900473ffffffffffffffffffffffffffffffffffffffff1681565b6111dc8061051983390190565b600081519050919050565b600082825260208201905092915050565b6000819050602082019050919050565b600073ffffffffffffffffffffffffffffffffffffffff82169050919050565b6000819050919050565b60006102d16102cc6102c78461028c565b6102ac565b61028c565b9050919050565b60006102e3826102b6565b9050919050565b60006102f5826102d8565b9050919050565b610305816102ea565b82525050565b600061031783836102fc565b60208301905092915050565b6000602082019050919050565b600061033b82610260565b610345818561026b565b93506103508361027c565b8060005b83811015610381578151610368888261030b565b975061037383610323565b925050600181019050610354565b5085935050505092915050565b600060208201905081810360008301526103a88184610330565b905092915050565b600080fd5b6000819050919050565b6103c8816103b5565b81146103d357600080fd5b50565b6000813590506103e5816103bf565b92915050565b600060208284031215610401576104006103b0565b5b600061040f848285016103d6565b91505092915050565b610421816102ea565b82525050565b600060208201905061043c6000830184610418565b92915050565b61044b816103b5565b82525050565b600061045c8261028c565b9050919050565b61046c81610451565b82525050565b60006040820190506104876000830185610442565b6104946020830184610463565b9392505050565b600082825260208201905092915050565b7f4e65772043616d706169676e206465706c6f7965642100000000000000000000600082015250565b60006104e260168361049b565b91506104ed826104ac565b602082019050919050565b60006020820190508181036000830152610511816104d5565b905091905056fe6080604052600080553480156200001557600080fd5b50604051620011dc380380620011dc83398181016040528101906200003b919062000130565b80600260006101000a81548173ffffffffffffffffffffffffffffffffffffffff021916908373ffffffffffffffffffffffffffffffffffffffff16021790555081600481905550505062000177565b600080fd5b6000819050919050565b620000a58162000090565b8114620000b157600080fd5b50565b600081519050620000c5816200009a565b92915050565b600073ffffffffffffffffffffffffffffffffffffffff82169050919050565b6000620000f882620000cb565b9050919050565b6200010a81620000eb565b81146200011657600080fd5b50565b6000815190506200012a81620000ff565b92915050565b600080604083850312156200014a57620001496200008b565b5b60006200015a85828601620000b4565b92505060206200016d8582860162000119565b9150509250929050565b61105580620001876000396000f3fe6080604052600436106100865760003560e01c806382fde0931161005957806382fde0931461015d5780638a9cfd5514610188578063937e09b1146101b1578063d7bb99ba146101dc578063d7d1bbdb146101e657610086565b8063034410061461008b5780630a144391146100b4578063481c6a75146100f157806381d12c581461011c575b600080fd5b34801561009757600080fd5b506100b260048036038101906100ad919061084d565b61020f565b005b3480156100c057600080fd5b506100db60048036038101906100d691906108d8565b61034a565b6040516100e89190610920565b60405180910390f35b3480156100fd57600080fd5b5061010661036a565b604051610113919061094a565b60405180910390f35b34801561012857600080fd5b50610143600480360381019061013e919061084d565b610390565b604051610154959493929190610a25565b60405180910390f35b34801561016957600080fd5b5061017261047b565b60405161017f9190610a7f565b60405180910390f35b34801561019457600080fd5b506101af60048036038101906101aa9190610bfb565b610481565b005b3480156101bd57600080fd5b506101c66105e8565b6040516101d39190610a7f565b60405180910390f35b6101e46105ee565b005b3480156101f257600080fd5b5061020d6004803603810190610208919061084d565b6106c5565b005b600260009054906101000a900473ffffffffffffffffffffffffffffffffffffffff1673ffffffffffffffffffffffffffffffffffffffff163373ffffffffffffffffffffffffffffffffffffffff161461026957600080fd5b6000600160008381526020019081526020016000209050600260055461028f9190610cc8565b81600301541161029e57600080fd5b8060020160149054906101000a900460ff16156102ba57600080fd5b8060020160009054906101000a900473ffffffffffffffffffffffffffffffffffffffff1673ffffffffffffffffffffffffffffffffffffffff166108fc82600101549081150290604051600060405180830381858888f19350505050158015610328573d6000803e3d6000fd5b5060018160020160146101000a81548160ff0219169083151502179055505050565b60036020528060005260406000206000915054906101000a900460ff1681565b600260009054906101000a900473ffffffffffffffffffffffffffffffffffffffff1681565b60016020528060005260406000206000915090508060000180546103b390610d28565b80601f01602080910402602001604051908101604052809291908181526020018280546103df90610d28565b801561042c5780601f106104015761010080835404028352916020019161042c565b820191906000526020600020905b81548152906001019060200180831161040f57829003601f168201915b5050505050908060010154908060020160009054906101000a900473ffffffffffffffffffffffffffffffffffffffff16908060020160149054906101000a900460ff16908060030154905085565b60055481565b600260009054906101000a900473ffffffffffffffffffffffffffffffffffffffff1673ffffffffffffffffffffffffffffffffffffffff163373ffffffffffffffffffffffffffffffffffffffff16146104db57600080fd5b600360003373ffffffffffffffffffffffffffffffffffffffff1673ffffffffffffffffffffffffffffffffffffffff16815260200190815260200160002060009054906101000a900460ff1661053157600080fd5b60006001600080600081548092919061054990610d59565b91905055815260200190815260200160002090508381600001908161056e9190610f4d565b50828160010181905550818160020160006101000a81548173ffffffffffffffffffffffffffffffffffffffff021916908373ffffffffffffffffffffffffffffffffffffffff16021790555060008160020160146101000a81548160ff0219169083151502179055506000816003018190555050505050565b60045481565b60045434116105fc57600080fd5b600360003373ffffffffffffffffffffffffffffffffffffffff1673ffffffffffffffffffffffffffffffffffffffff16815260200190815260200160002060009054906101000a900460ff161561065357600080fd5b6001600360003373ffffffffffffffffffffffffffffffffffffffff1673ffffffffffffffffffffffffffffffffffffffff16815260200190815260200160002060006101000a81548160ff021916908315150217905550600560008154809291906106be90610d59565b9190505550565b6000600160008381526020019081526020016000209050600360003373ffffffffffffffffffffffffffffffffffffffff1673ffffffffffffffffffffffffffffffffffffffff16815260200190815260200160002060009054906101000a900460ff1661073257600080fd5b8060040160003373ffffffffffffffffffffffffffffffffffffffff1673ffffffffffffffffffffffffffffffffffffffff16815260200190815260200160002060009054906101000a900460ff161561078b57600080fd5b60018160040160003373ffffffffffffffffffffffffffffffffffffffff1673ffffffffffffffffffffffffffffffffffffffff16815260200190815260200160002060006101000a81548160ff0219169083151502179055508060030160008154809291906107fa90610d59565b91905055505050565b6000604051905090565b600080fd5b600080fd5b6000819050919050565b61082a81610817565b811461083557600080fd5b50565b60008135905061084781610821565b92915050565b6000602082840312156108635761086261080d565b5b600061087184828501610838565b91505092915050565b600073ffffffffffffffffffffffffffffffffffffffff82169050919050565b60006108a58261087a565b9050919050565b6108b58161089a565b81146108c057600080fd5b50565b6000813590506108d2816108ac565b92915050565b6000602082840312156108ee576108ed61080d565b5b60006108fc848285016108c3565b91505092915050565b60008115159050919050565b61091a81610905565b82525050565b60006020820190506109356000830184610911565b92915050565b6109448161089a565b82525050565b600060208201905061095f600083018461093b565b92915050565b600081519050919050565b600082825260208201905092915050565b60005b8381101561099f578082015181840152602081019050610984565b60008484015250505050565b6000601f19601f8301169050919050565b60006109c782610965565b6109d18185610970565b93506109e1818560208601610981565b6109ea816109ab565b840191505092915050565b6109fe81610817565b82525050565b6000610a0f8261087a565b9050919050565b610a1f81610a04565b82525050565b600060a0820190508181036000830152610a3f81886109bc565b9050610a4e60208301876109f5565b610a5b6040830186610a16565b610a686060830185610911565b610a7560808301846109f5565b9695505050505050565b6000602082019050610a9460008301846109f5565b92915050565b600080fd5b600080fd5b7f4e487b7100000000000000000000000000000000000000000000000000000000600052604160045260246000fd5b610adc826109ab565b810181811067ffffffffffffffff82111715610afb57610afa610aa4565b5b80604052505050565b6000610b0e610803565b9050610b1a8282610ad3565b919050565b600067ffffffffffffffff821115610b3a57610b39610aa4565b5b610b43826109ab565b9050602081019050919050565b82818337600083830152505050565b6000610b72610b6d84610b1f565b610b04565b905082815260208101848484011115610b8e57610b8d610a9f565b5b610b99848285610b50565b509392505050565b600082601f830112610bb657610bb5610a9a565b5b8135610bc6848260208601610b5f565b91505092915050565b610bd881610a04565b8114610be357600080fd5b50565b600081359050610bf581610bcf565b92915050565b600080600060608486031215610c1457610c1361080d565b5b600084013567ffffffffffffffff811115610c3257610c31610812565b5b610c3e86828701610ba1565b9350506020610c4f86828701610838565b9250506040610c6086828701610be6565b9150509250925092565b7f4e487b7100000000000000000000000000000000000000000000000000000000600052601260045260246000fd5b7f4e487b7100000000000000000000000000000000000000000000000000000000600052601160045260246000fd5b6000610cd382610817565b9150610cde83610817565b925082610cee57610ced610c6a565b5b828204905092915050565b7f4e487b7100000000000000000000000000000000000000000000000000000000600052602260045260246000fd5b60006002820490506001821680610d4057607f821691505b602082108103610d5357610d52610cf9565b5b50919050565b6000610d6482610817565b91507fffffffffffffffffffffffffffffffffffffffffffffffffffffffffffffffff8203610d9657610d95610c99565b5b600182019050919050565b60008190508160005260206000209050919050565b60006020601f8301049050919050565b600082821b905092915050565b600060088302610e037fffffffffffffffffffffffffffffffffffffffffffffffffffffffffffffffff82610dc6565b610e0d8683610dc6565b95508019841693508086168417925050509392505050565b6000819050919050565b6000610e4a610e45610e4084610817565b610e25565b610817565b9050919050565b6000819050919050565b610e6483610e2f565b610e78610e7082610e51565b848454610dd3565b825550505050565b600090565b610e8d610e80565b610e98818484610e5b565b505050565b5b81811015610ebc57610eb1600082610e85565b600181019050610e9e565b5050565b601f821115610f0157610ed281610da1565b610edb84610db6565b81016020851015610eea578190505b610efe610ef685610db6565b830182610e9d565b50505b505050565b600082821c905092915050565b6000610f2460001984600802610f06565b1980831691505092915050565b6000610f3d8383610f13565b9150826002028217905092915050565b610f5682610965565b67ffffffffffffffff811115610f6f57610f6e610aa4565b5b610f798254610d28565b610f84828285610ec0565b600060209050601f831160018114610fb75760008415610fa5578287015190505b610faf8582610f31565b865550611017565b601f198416610fc586610da1565b60005b82811015610fed57848901518255600182019150602085019450602081019050610fc8565b8683101561100a5784890151611006601f891682610f13565b8355505b6001600288020188555050505b50505050505056fea2646970667358221220307f5aa9c0f9508ab44a5e3c53c941610fa17fdadb6a50a4f44516b224595d6164736f6c63430008130033a2646970667358221220b29ef22818b6c7b6efafd975ae40c7bbefbf41b65b6c4dc2d98df4e54833c49664736f6c63430008130033",
  "immutableReferences": {},
  "source": "// SPDX-License-Identifier: MIT\r\npragma solidity ^0.8.19;\r\n\r\ncontract CampaignFactory {\r\n    Campaign[] public deployedCampaign;\r\n    event LogNewAlert(string description);\r\n\r\n    function createCampaign(uint minimum) public {\r\n        Campaign newCampaign = new Campaign(minimum, msg.sender);\r\n        deployedCampaign.push(newCampaign);\r\n        emit LogNewAlert(\"New Campaign deployed!\");\r\n    }\r\n\r\n    function getDeployedCampaign() public view returns (Campaign[] memory) {\r\n        return deployedCampaign;\r\n    }\r\n}\r\n\r\ncontract Campaign {\r\n    struct Request {\r\n        string description;\r\n        uint value;\r\n        address payable recipient;\r\n        bool complete;\r\n        uint approvalCount;\r\n        mapping(address => bool) approvals;\r\n    }\r\n    uint numRequests = 0;\r\n    mapping(uint => Request) public requests;\r\n    address public manager;\r\n    mapping(address => bool) public approvers;\r\n    uint public minimumContribution;\r\n    uint public approversCount;\r\n    modifier restricted() {\r\n        require(msg.sender == manager);\r\n        _;\r\n    }\r\n\r\n    constructor(uint minimum, address creator) {\r\n        manager = creator;\r\n        minimumContribution = minimum;\r\n    }\r\n\r\n    function contribute() public payable {\r\n        require(msg.value > minimumContribution);\r\n        require(!approvers[msg.sender]);\r\n        approvers[msg.sender] = true;\r\n        approversCount++;\r\n    }\r\n\r\n    function createRequest(\r\n        string memory description,\r\n        uint value,\r\n        address payable recipient\r\n    ) public restricted {\r\n        require(approvers[msg.sender]);\r\n        Request storage r = requests[numRequests++];\r\n        r.description = description;\r\n        r.value = value;\r\n        r.recipient = recipient;\r\n        r.complete = false;\r\n        r.approvalCount = 0;\r\n    }\r\n\r\n    function approveRequest(uint index) public {\r\n        Request storage request = requests[index];\r\n        require(approvers[msg.sender]);\r\n        require(!request.approvals[msg.sender]);\r\n        request.approvals[msg.sender] = true;\r\n        request.approvalCount++;\r\n    }\r\n\r\n    function finalizeRequest(uint index) public restricted {\r\n        Request storage request = requests[index];\r\n        require(request.approvalCount > (approversCount / 2));\r\n        require(!request.complete);\r\n        request.recipient.transfer(request.value);\r\n        request.complete = true;\r\n    }\r\n}\r\n",
  "sourcePath": "F:\\Blockchain\\kickstart-truffle\\contracts\\Campaign.sol",
  "compiler": {
    "name": "solc",
    "version": "0.8.19+commit.7dd6d404.Emscripten.clang"
  },
  "schemaVersion": "3.4.16",
  "updatedAt": "2023-09-25T05:40:06.853Z",
  "networkType": "ethereum",
  "devdoc": {
    "kind": "dev",
    "methods": {},
    "version": 1
  },
  "userdoc": {
    "kind": "user",
    "methods": {},
    "version": 1
  }
}