{
  "contractName": "Shipping",
  "abi": [
    {
      "inputs": [],
      "stateMutability": "nonpayable",
      "type": "constructor"
    },
    {
      "anonymous": false,
      "inputs": [
        {
          "indexed": false,
          "internalType": "string",
          "name": "description",
          "type": "string"
        }
      ],
      "name": "LogNewAlert",
      "type": "event"
    },
    {
      "inputs": [],
      "name": "Shipped",
      "outputs": [],
      "stateMutability": "nonpayable",
      "type": "function"
    },
    {
      "inputs": [],
      "name": "Delivered",
      "outputs": [],
      "stateMutability": "nonpayable",
      "type": "function"
    },
    {
      "inputs": [],
      "name": "Status",
      "outputs": [
        {
          "internalType": "string",
          "name": "",
          "type": "string"
        }
      ],
      "stateMutability": "view",
      "type": "function",
      "constant": true
    }
  ],
  "bytecode": "0x608060405234801561001057600080fd5b5060008060006101000a81548160ff0219169083600281111561005c577f4e487b7100000000000000000000000000000000000000000000000000000000600052602160045260246000fd5b0217905550610584806100706000396000f3fe608060405234801561001057600080fd5b50600436106100415760003560e01c806345f09ce914610046578063779822f7146100645780637e59301e1461006e575b600080fd5b61004e610078565b60405161005b919061048c565b60405180910390f35b61006c61009c565b005b610076610123565b005b606060008060009054906101000a900460ff169050610096816101aa565b91505090565b60026000806101000a81548160ff021916908360028111156100e7577f4e487b7100000000000000000000000000000000000000000000000000000000600052602160045260246000fd5b02179055507fca75c80642b93c980135b8355995abae3ab06033dc81f956b3824323b4903ef5604051610119906104ce565b60405180910390a1565b60016000806101000a81548160ff0219169083600281111561016e577f4e487b7100000000000000000000000000000000000000000000000000000000600052602160045260246000fd5b02179055507fca75c80642b93c980135b8355995abae3ab06033dc81f956b3824323b4903ef56040516101a0906104ae565b60405180910390a1565b60608160028111156101e5577f4e487b7100000000000000000000000000000000000000000000000000000000600052602160045260246000fd5b6000600281111561021f577f4e487b7100000000000000000000000000000000000000000000000000000000600052602160045260246000fd5b1415610262576040518060400160405280600781526020017f50656e64696e670000000000000000000000000000000000000000000000000081525090506103ce565b81600281111561029b577f4e487b7100000000000000000000000000000000000000000000000000000000600052602160045260246000fd5b600160028111156102d5577f4e487b7100000000000000000000000000000000000000000000000000000000600052602160045260246000fd5b1415610318576040518060400160405280600781526020017f536869707065640000000000000000000000000000000000000000000000000081525090506103ce565b816002811115610351577f4e487b7100000000000000000000000000000000000000000000000000000000600052602160045260246000fd5b60028081111561038a577f4e487b7100000000000000000000000000000000000000000000000000000000600052602160045260246000fd5b14156103cd576040518060400160405280600981526020017f44656c697665726564000000000000000000000000000000000000000000000081525090506103ce565b5b919050565b60006103de826104ee565b6103e881856104f9565b93506103f881856020860161050a565b6104018161053d565b840191505092915050565b6000610419601d836104f9565b91507f596f7572207061636b61676520686173206265656e20736869707065640000006000830152602082019050919050565b60006104596018836104f9565b91507f596f7572207061636b61676520686173206172726976656400000000000000006000830152602082019050919050565b600060208201905081810360008301526104a681846103d3565b905092915050565b600060208201905081810360008301526104c78161040c565b9050919050565b600060208201905081810360008301526104e78161044c565b9050919050565b600081519050919050565b600082825260208201905092915050565b60005b8381101561052857808201518184015260208101905061050d565b83811115610537576000848401525b50505050565b6000601f19601f830116905091905056fea2646970667358221220b697918b11c34d33e13dbdede31360f0171b699aea2a159d893515544200c3d864736f6c63430008000033",
  "immutableReferences": {},
  "source": "//SPDX-License-Identifier: MIT\r\npragma solidity >=0.5.12 <=0.8.0;\r\n\r\ncontract Shipping {\r\n    enum ShippingStatus {\r\n        Pending,\r\n        Shipped,\r\n        Delivered\r\n    }\r\n\r\n    ShippingStatus private status;\r\n\r\n    event LogNewAlert(string description);\r\n\r\n    constructor() {\r\n        status = ShippingStatus.Pending;\r\n    }\r\n\r\n    function Shipped() public {\r\n        status = ShippingStatus.Shipped;\r\n        emit LogNewAlert(\"Your package has been shipped\");\r\n    }\r\n\r\n    function Delivered() public {\r\n        status = ShippingStatus.Delivered;\r\n        emit LogNewAlert(\"Your package has arrived\");\r\n    }\r\n\r\n    function getStatus(\r\n        ShippingStatus _status\r\n    ) internal pure returns (string memory abc) {\r\n        if (ShippingStatus.Pending == _status) return \"Pending\";\r\n        if (ShippingStatus.Shipped == _status) return \"Shipped\";\r\n        if (ShippingStatus.Delivered == _status) return \"Delivered\";\r\n    }\r\n\r\n    function Status() public view returns (string memory) {\r\n        ShippingStatus _status = status;\r\n        return getStatus(_status);\r\n    }\r\n}\r\n",
  "sourcePath": "F:\\Blockchain\\shipping\\contracts\\Shipping.sol",
  "compiler": {
    "name": "solc",
    "version": "0.8.0+commit.c7dfd78e.Emscripten.clang"
  },
  "schemaVersion": "3.4.16",
  "updatedAt": "2023-09-25T05:40:32.470Z",
  "networkType": "ethereum",
  "devdoc": {
    "kind": "dev",
    "methods": {},
    "version": 1
  },
  "userdoc": {
    "kind": "user",
    "methods": {},
    "version": 1
  }
}